{
  "contractName": "AppraisalDao",
  "abi": [
    {
      "anonymous": false,
      "inputs": [
        {
          "indexed": false,
          "name": "asRole",
          "type": "address"
        },
        {
          "indexed": false,
          "name": "id",
          "type": "bytes32"
        },
        {
          "indexed": false,
          "name": "childId",
          "type": "bytes32"
        },
        {
          "indexed": false,
          "name": "account",
          "type": "address"
        },
        {
          "indexed": false,
          "name": "active",
          "type": "bool"
        }
      ],
      "name": "Registered",
      "type": "event"
    },
    {
      "constant": false,
      "inputs": [
        {
          "name": "withContract",
          "type": "address"
        },
        {
          "name": "asRole",
          "type": "address"
        },
        {
          "name": "parentId",
          "type": "bytes32"
        },
        {
          "name": "childId",
          "type": "bytes32"
        },
        {
          "name": "account",
          "type": "address"
        },
        {
          "name": "rlpData",
          "type": "bytes"
        }
      ],
      "name": "registerMembership",
      "outputs": [
        {
          "name": "",
          "type": "bytes32"
        }
      ],
      "payable": false,
      "stateMutability": "nonpayable",
      "type": "function"
    }
  ],
  "bytecode": "0x60806040526103f2806100136000396000f3006080604052600436106100405763ffffffff7c0100000000000000000000000000000000000000000000000000000000600035041663ed97b2848114610045575b600080fd5b34801561005157600080fd5b50604080516020600460a43581810135601f81018490048402850184019095528484526100d094823573ffffffffffffffffffffffffffffffffffffffff90811695602480358316966044359660643596608435909516953695919460c494909392019181908401838280828437509497506100e29650505050505050565b60408051918252519081900360200190f35b60006100f3338888888888886100fe565b979650505050505050565b600080600061010d858861033e565b91508773ffffffffffffffffffffffffffffffffffffffff166307bcb6aa8b30858a8a8a6040518763ffffffff167c0100000000000000000000000000000000000000000000000000000000028152600401808773ffffffffffffffffffffffffffffffffffffffff1673ffffffffffffffffffffffffffffffffffffffff1681526020018673ffffffffffffffffffffffffffffffffffffffff1673ffffffffffffffffffffffffffffffffffffffff168152602001856000191660001916815260200184600019166000191681526020018373ffffffffffffffffffffffffffffffffffffffff1673ffffffffffffffffffffffffffffffffffffffff16815260200180602001828103825283818151815260200191508051906020019080838360005b8381101561024b578181015183820152602001610233565b50505050905090810190601f1680156102785780820380516001836020036101000a031916815260200191505b50975050505050505050602060405180830381600087803b15801561029c57600080fd5b505af11580156102b0573d6000803e3d6000fd5b505050506040513d60208110156102c657600080fd5b50516040805173ffffffffffffffffffffffffffffffffffffffff808c168252602082018b9052818301849052881660608201526001608082015290519192507f3f2aa18c26794287822dc6066f89faec8e22d215f75b9cd54d90597cc943e945919081900360a00190a19998505050505050505050565b60008115156103bd576040516c0100000000000000000000000073ffffffffffffffffffffffffffffffffffffffff85168102825232818102601484015233918202602884015285929091906000903690434090603c8101848480828437909101928352505060405190819003602001902095506103c0945050505050565b50805b929150505600a165627a7a723058208fb395ea8b7093de038fee8a16443fd691ed57a35abe0846103d68ab9af0d50a0029",
  "source": "\n\nimport \"./Membership.sol\";\nimport \"./Role.sol\";\n\n\n/**\n * The contractName contract does this and that...\n */\ncontract AppraisalDao is  Membership\n{\n    \n   \n\n    function registerMembership(\n        Role withContract,\n        Role asRole,\n        bytes32 parentId,\n        bytes32 childId,\n        address account,\n        bytes rlpData\n    ) public returns (bytes32) {\n        return _registerMembership(\n            msg.sender,\n            withContract,\n            asRole,\n            parentId,\n            childId,\n            account,\n            rlpData\n        );\n    }\n   \n\n    \n}\n",
  "sourcePath": "/home/hari/Desktop/Appraisal/Appraisal/contracts/AppraisalDao.sol",
  "compiler": {
    "name": "solc",
    "version": "0.4.24+commit.e67f0147.Emscripten.clang"
  },
  "schemaVersion": "3.0.0-beta.0",
  "updatedAt": "2019-03-06T13:57:14.469Z"
}