{
  "contractName": "Employee",
  "abi": [
    {
      "constant": false,
      "inputs": [
        {
          "name": "caller",
          "type": "address"
        },
        {
          "name": "withContract",
          "type": "address"
        },
        {
          "name": "asRole",
          "type": "address"
        },
        {
          "name": "parentId",
          "type": "bytes32"
        },
        {
          "name": "childId",
          "type": "bytes32"
        },
        {
          "name": "account",
          "type": "address"
        },
        {
          "name": "rlpData",
          "type": "bytes"
        }
      ],
      "name": "unregisterMembership",
      "outputs": [
        {
          "name": "",
          "type": "bytes32"
        }
      ],
      "payable": false,
      "stateMutability": "nonpayable",
      "type": "function"
    },
    {
      "constant": true,
      "inputs": [
        {
          "name": "",
          "type": "bytes32"
        }
      ],
      "name": "employees",
      "outputs": [
        {
          "name": "id",
          "type": "string"
        },
        {
          "name": "name",
          "type": "string"
        },
        {
          "name": "contact",
          "type": "string"
        },
        {
          "name": "city",
          "type": "string"
        },
        {
          "name": "state",
          "type": "string"
        },
        {
          "name": "zip",
          "type": "string"
        }
      ],
      "payable": false,
      "stateMutability": "view",
      "type": "function"
    },
    {
      "constant": false,
      "inputs": [
        {
          "name": "caller",
          "type": "address"
        },
        {
          "name": "withContract",
          "type": "address"
        },
        {
          "name": "asRole",
          "type": "address"
        },
        {
          "name": "parentId",
          "type": "bytes32"
        },
        {
          "name": "childId",
          "type": "bytes32"
        },
        {
          "name": "account",
          "type": "address"
        },
        {
          "name": "rlpData",
          "type": "bytes"
        }
      ],
      "name": "registerMembership",
      "outputs": [
        {
          "name": "",
          "type": "bytes32"
        }
      ],
      "payable": false,
      "stateMutability": "nonpayable",
      "type": "function"
    },
    {
      "anonymous": false,
      "inputs": [
        {
          "indexed": false,
          "name": "id",
          "type": "bytes32"
        },
        {
          "indexed": false,
          "name": "account",
          "type": "address"
        },
        {
          "indexed": false,
          "name": "active",
          "type": "bool"
        }
      ],
      "name": "EmployeRegistered",
      "type": "event"
    },
    {
      "anonymous": false,
      "inputs": [
        {
          "indexed": false,
          "name": "id",
          "type": "bytes32"
        },
        {
          "indexed": false,
          "name": "account",
          "type": "address"
        },
        {
          "indexed": false,
          "name": "active",
          "type": "bool"
        }
      ],
      "name": "EmployeUnregistered",
      "type": "event"
    },
    {
      "anonymous": false,
      "inputs": [
        {
          "indexed": false,
          "name": "asRole",
          "type": "address"
        },
        {
          "indexed": false,
          "name": "id",
          "type": "bytes32"
        },
        {
          "indexed": false,
          "name": "childId",
          "type": "bytes32"
        },
        {
          "indexed": false,
          "name": "account",
          "type": "address"
        },
        {
          "indexed": false,
          "name": "active",
          "type": "bool"
        }
      ],
      "name": "Registered",
      "type": "event"
    },
    {
      "constant": false,
      "inputs": [
        {
          "name": "caller",
          "type": "address"
        },
        {
          "name": "parent",
          "type": "address"
        },
        {
          "name": "parentId",
          "type": "bytes32"
        },
        {
          "name": "childId",
          "type": "bytes32"
        },
        {
          "name": "account",
          "type": "address"
        },
        {
          "name": "rlpData",
          "type": "bytes"
        }
      ],
      "name": "register",
      "outputs": [
        {
          "name": "",
          "type": "bytes32"
        }
      ],
      "payable": false,
      "stateMutability": "nonpayable",
      "type": "function"
    },
    {
      "constant": false,
      "inputs": [
        {
          "name": "caller",
          "type": "address"
        },
        {
          "name": "parent",
          "type": "address"
        },
        {
          "name": "id",
          "type": "bytes32"
        },
        {
          "name": "account",
          "type": "address"
        },
        {
          "name": "rlpData",
          "type": "bytes"
        }
      ],
      "name": "unregister",
      "outputs": [],
      "payable": false,
      "stateMutability": "nonpayable",
      "type": "function"
    }
  ],
  "bytecode": "0x60806040526113f5806100136000396000f30060806040526004361061006c5763ffffffff7c010000000000000000000000000000000000000000000000000000000060003504166307bcb6aa81146100715780632bef1a40146100d35780636ea5e3e814610162578063af1ab297146101ae578063fcd009ee146100d3575b600080fd5b34801561007d57600080fd5b506100c173ffffffffffffffffffffffffffffffffffffffff600480358216916024803582169260443592606435926084359091169160a43591820191013561043c565b60408051918252519081900360200190f35b3480156100df57600080fd5b50604080516020600460c43581810135601f81018490048402850184019095528484526100c194823573ffffffffffffffffffffffffffffffffffffffff9081169560248035831696604435841696606435966084359660a435909616953695929460e49492019181908401838280828437509497506106ab9650505050505050565b34801561016e57600080fd5b506101ac73ffffffffffffffffffffffffffffffffffffffff60048035821691602480358216926044359260643516916084359081019101356106c8565b005b3480156101ba57600080fd5b506101c6600435610786565b6040518080602001806020018060200180602001806020018060200187810387528d818151815260200191508051906020019080838360005b838110156102175781810151838201526020016101ff565b50505050905090810190601f1680156102445780820380516001836020036101000a031916815260200191505b5087810386528c5181528c516020918201918e019080838360005b8381101561027757818101518382015260200161025f565b50505050905090810190601f1680156102a45780820380516001836020036101000a031916815260200191505b5087810385528b5181528b516020918201918d019080838360005b838110156102d75781810151838201526020016102bf565b50505050905090810190601f1680156103045780820380516001836020036101000a031916815260200191505b5087810384528a5181528a516020918201918c019080838360005b8381101561033757818101518382015260200161031f565b50505050905090810190601f1680156103645780820380516001836020036101000a031916815260200191505b5087810383528951815289516020918201918b019080838360005b8381101561039757818101518382015260200161037f565b50505050905090810190601f1680156103c45780820380516001836020036101000a031916815260200191505b5087810382528851815288516020918201918a019080838360005b838110156103f75781810151838201526020016103df565b50505050905090810190601f1680156104245780820380516001836020036101000a031916815260200191505b509c5050505050505050505050505060405180910390f35b6000806104476112af565b61044f6112c6565b6104598789610b04565b925061049f600187878080601f01602080910402602001604051908101604052809392919081815260200183838082843750949594505063ffffffff610b8c1692505050565b91506104aa82610bfb565b151561051757604080517f08c379a000000000000000000000000000000000000000000000000000000000815260206004820152601660248201527f524c502064617461206973206e6f742061206c69737400000000000000000000604482015290519081900360640190fd5b61052082610c2d565b905060c06040519081016040528061053f61053a84610cc8565b610d0d565b815260200161055061053a84610cc8565b815260200161056161053a84610cc8565b815260200161057261053a84610cc8565b815260200161058361053a84610cc8565b815260200161059461053a84610cc8565b90526000848152602081815260409091208251805191926105ba928492909101906112e7565b5060208281015180516105d392600185019201906112e7565b50604082015180516105ef9160028401916020909101906112e7565b506060820151805161060b9160038401916020909101906112e7565b50608082015180516106279160048401916020909101906112e7565b5060a082015180516106439160058401916020909101906112e7565b50506040805185815273ffffffffffffffffffffffffffffffffffffffff8a16602082015260018183015290517f36cace250dc0fdd1c4a1c2b3314651cd3d8173fe27270f76be5ebec70d2668cd92509081900360600190a150909998505050505050505050565b60006106bc88888888888888610ddb565b98975050505050505050565b6000848152602081905260408120906106e18282611365565b6106ef600183016000611365565b6106fd600283016000611365565b61070b600383016000611365565b610719600483016000611365565b610727600583016000611365565b50506040805185815273ffffffffffffffffffffffffffffffffffffffff8516602082015260008183015290517fd6f034d8d5bc3958d9ca2065533649dfe3220e8199314c7ba91dace5cb6ee76d9181900360600190a1505050505050565b6000602081815291815260409081902080548251601f60026000196101006001861615020190931692909204918201859004850281018501909352808352909283919083018282801561081a5780601f106107ef5761010080835404028352916020019161081a565b820191906000526020600020905b8154815290600101906020018083116107fd57829003601f168201915b505050505090806001018054600181600116156101000203166002900480601f0160208091040260200160405190810160405280929190818152602001828054600181600116156101000203166002900480156108b85780601f1061088d576101008083540402835291602001916108b8565b820191906000526020600020905b81548152906001019060200180831161089b57829003601f168201915b50505060028085018054604080516020601f600019610100600187161502019094169590950492830185900485028101850190915281815295969594509092509083018282801561094a5780601f1061091f5761010080835404028352916020019161094a565b820191906000526020600020905b81548152906001019060200180831161092d57829003601f168201915b5050505060038301805460408051602060026001851615610100026000190190941693909304601f81018490048402820184019092528181529495949350908301828280156109da5780601f106109af576101008083540402835291602001916109da565b820191906000526020600020905b8154815290600101906020018083116109bd57829003601f168201915b5050505060048301805460408051602060026001851615610100026000190190941693909304601f8101849004840282018401909252818152949594935090830182828015610a6a5780601f10610a3f57610100808354040283529160200191610a6a565b820191906000526020600020905b815481529060010190602001808311610a4d57829003601f168201915b5050505060058301805460408051602060026001851615610100026000190190941693909304601f8101849004840282018401909252818152949594935090830182828015610afa5780601f10610acf57610100808354040283529160200191610afa565b820191906000526020600020905b815481529060010190602001808311610add57829003601f168201915b5050505050905086565b6000811515610b83576040516c0100000000000000000000000073ffffffffffffffffffffffffffffffffffffffff85168102825232818102601484015233918202602884015285929091906000903690434090603c810184848082843790910192835250506040519081900360200190209550610b86945050505050565b50805b92915050565b610b946112af565b610b9c6112af565b6000610ba78561101b565b91508315610bf35750835180610bbc83611063565b1115610bc757600080fd5b80610bd583600001516110e3565b14610bdf57600080fd5b610be882611170565b1515610bf357600080fd5b509392505050565b600080826020015160001415610c145760009150610c27565b8260000151905060c0815160001a101591505b50919050565b610c356112c6565b6000610c4083610bfb565b1515610cad57604080517f08c379a000000000000000000000000000000000000000000000000000000000815260206004820152600860248201527f4e6f74204c697374000000000000000000000000000000000000000000000000604482015290519081900360640190fd5b610cb683611063565b83519383529092016020820152919050565b610cd06112af565b600080610cdc846111aa565b1561006c5783602001519150610cf1826110e3565b82845260208085018290528382019086015290505b5050919050565b60606000806060610d1d856111c9565b1515610d8a57604080517f08c379a000000000000000000000000000000000000000000000000000000000815260206004820152601060248201527f746f4173636969204e6f74206461746100000000000000000000000000000000604482015290519081900360640190fd5b610d93856111f2565b92509250816040519080825280601f01601f191660200182016040528015610dc5578160200160208202803883390190505b509050610dd383828461126f565b949350505050565b6000806000610dea8588610b04565b91508773ffffffffffffffffffffffffffffffffffffffff166307bcb6aa8b30858a8a8a6040518763ffffffff167c0100000000000000000000000000000000000000000000000000000000028152600401808773ffffffffffffffffffffffffffffffffffffffff1673ffffffffffffffffffffffffffffffffffffffff1681526020018673ffffffffffffffffffffffffffffffffffffffff1673ffffffffffffffffffffffffffffffffffffffff168152602001856000191660001916815260200184600019166000191681526020018373ffffffffffffffffffffffffffffffffffffffff1673ffffffffffffffffffffffffffffffffffffffff16815260200180602001828103825283818151815260200191508051906020019080838360005b83811015610f28578181015183820152602001610f10565b50505050905090810190601f168015610f555780820380516001836020036101000a031916815260200191505b50975050505050505050602060405180830381600087803b158015610f7957600080fd5b505af1158015610f8d573d6000803e3d6000fd5b505050506040513d6020811015610fa357600080fd5b50516040805173ffffffffffffffffffffffffffffffffffffffff808c168252602082018b9052818301849052881660608201526001608082015290519192507f3f2aa18c26794287822dc6066f89faec8e22d215f75b9cd54d90597cc943e945919081900360a00190a19998505050505050505050565b6110236112af565b815160008115156110495760408051808201909152600080825260208201529250610d06565b506040805180820190915260209384018152928301525090565b600080600083602001516000141561107e5760009250610d06565b50508151805160001a90608082101561109a5760009250610d06565b60b88210806110b5575060c082101580156110b5575060f882105b156110c35760019250610d06565b60c08210156110d85760b51982019250610d06565b5060f5190192915050565b8051600090811a60808110156110fc5760019150610c27565b60b881101561111157607e1981019150610c27565b60c081101561113a57600183015160b76020839003016101000a9004810160b519019150610c27565b60f881101561114f5760be1981019150610c27565b6001929092015160f76020849003016101000a900490910160f51901919050565b8051805160009181831a9160011a9060818314801561118f5750608082105b1561119d57600093506111a2565b600193505b505050919050565b60006111b46112af565b50508051602080820151915192015191011190565b6000808260200151600014156111e25760009150610c27565b5050515160c060009190911a1090565b6000806000806000611203866111c9565b151561120e57600080fd5b8551805160001a93509150608083101561122e5781945060019350611267565b60b883101561124c5760018660200151039350816001019450611267565b60b78303905080600187602001510303935080820160010194505b505050915091565b60006020601f83010484602085015b82841461129c5760208402828101519082015260019093019261127e565b6000865160200187015250505050505050565b604080518082019091526000808252602082015290565b6060604051908101604052806112da6112af565b8152602001600081525090565b828054600181600116156101000203166002900490600052602060002090601f016020900481019282601f1061132857805160ff1916838001178555611355565b82800160010185558215611355579182015b8281111561135557825182559160200191906001019061133a565b506113619291506113ac565b5090565b50805460018160011615610100020316600290046000825580601f1061138b57506113a9565b601f0160209004906000526020600020908101906113a991906113ac565b50565b6113c691905b8082111561136157600081556001016113b2565b905600a165627a7a72305820ed92fc0c4159984a00d72b5270cf44ba1296ca98c6fe4de2270cf3b35305549f0029",
  "source": "\n\nimport \"./Role.sol\";\nimport \"./RLPRegistration.sol\";\n\ncontract Employee is RLPRegistration {\n    struct EmployeeData {\n       \n        string id;\n        string name; // entity name\n        string contact;\n        string city; \n        string state;\n        string zip;\n       \n\n    }\n\n    event EmployeRegistered(\n        bytes32 id,\n        address account,\n        bool active\n    );\n    \n        event EmployeUnregistered(\n        bytes32 id,\n        address account,\n        bool active\n    );\n    \n   // id => rlp struct data\n \n    mapping(bytes32 => EmployeeData) public employees;\n\n    /**\n     * Parses RLP data and registers the account as a master admin for the organization\n     */\n    function register(\n        address caller,\n        Role parent,\n        bytes32 parentId,\n        bytes32 childId,\n        address account,\n        bytes rlpData\n    ) external  returns (bytes32) {\n        // need unique id for each registration\n        bytes32 id = getId(account, childId);\n\n        RLP.RLPItem memory data = rlpData.toRLPItem(true);\n        require(data.isList(), \"RLP data is not a list\");\n        RLP.Iterator memory iterator = data.iterator();\n\n    \n    \n        employees[id] = EmployeeData({\n            id: iterator.next().toAscii(),\n            name: iterator.next().toAscii(),\n            contact: iterator.next().toAscii(),\n            city: iterator.next().toAscii(),\n            state: iterator.next().toAscii(),\n            zip: iterator.next().toAscii()\n         \n        });\n\n        // FIXME: Compilation error on newer versions of solidity\n        // require(keccak256(types[masterAdmins[id].organizationType]) != keccak256(\"\"), \"Invalid organizationType\");\n\n      //  employees[id].admins[account] = true;\n       // orgMap[id] = parentId;\n\n        emit EmployeRegistered({\n            id: id,\n            account: account,\n            active: true\n        });\n\n        return id;\n    }\n\n    function unregister(\n        address caller,\n        Role parent,\n        bytes32 id,\n        address account,\n        bytes rlpData\n    ) external  {\n        delete employees[id];\n        emit EmployeUnregistered({\n            id:id,\n            account: account,\n            active: false\n        });\n    }\n\n    // function acl(\n    //     address caller,\n    //     Role withContract,\n    //     Role asRole,\n    //     bytes32 parentId,\n    //     bytes32 childId,\n    //     address account,\n    //     bool create\n    // ) internal returns (bool) {\n    //     return masterAdmins[parentId].admins[caller];\n    // }\n}\n",
  "sourcePath": "/home/hari/Desktop/Appraisal/Appraisal/contracts/Employee.sol",
  "compiler": {
    "name": "solc",
    "version": "0.4.24+commit.e67f0147.Emscripten.clang"
  },
  "schemaVersion": "3.0.0-beta.0",
  "updatedAt": "2019-03-06T13:57:14.469Z"
}