{
  "contractName": "Organization",
  "abi": [
    {
      "constant": false,
      "inputs": [
        {
          "name": "caller",
          "type": "address"
        },
        {
          "name": "withContract",
          "type": "address"
        },
        {
          "name": "asRole",
          "type": "address"
        },
        {
          "name": "parentId",
          "type": "bytes32"
        },
        {
          "name": "childId",
          "type": "bytes32"
        },
        {
          "name": "account",
          "type": "address"
        },
        {
          "name": "rlpData",
          "type": "bytes"
        }
      ],
      "name": "unregisterMembership",
      "outputs": [
        {
          "name": "",
          "type": "bytes32"
        }
      ],
      "payable": false,
      "stateMutability": "nonpayable",
      "type": "function"
    },
    {
      "constant": true,
      "inputs": [
        {
          "name": "",
          "type": "bytes32"
        }
      ],
      "name": "masterAdmins",
      "outputs": [
        {
          "name": "name",
          "type": "string"
        },
        {
          "name": "streetAddress",
          "type": "string"
        },
        {
          "name": "city",
          "type": "string"
        },
        {
          "name": "state",
          "type": "string"
        },
        {
          "name": "zip",
          "type": "string"
        },
        {
          "name": "contact",
          "type": "string"
        }
      ],
      "payable": false,
      "stateMutability": "view",
      "type": "function"
    },
    {
      "constant": false,
      "inputs": [
        {
          "name": "caller",
          "type": "address"
        },
        {
          "name": "withContract",
          "type": "address"
        },
        {
          "name": "asRole",
          "type": "address"
        },
        {
          "name": "parentId",
          "type": "bytes32"
        },
        {
          "name": "childId",
          "type": "bytes32"
        },
        {
          "name": "account",
          "type": "address"
        },
        {
          "name": "rlpData",
          "type": "bytes"
        }
      ],
      "name": "registerMembership",
      "outputs": [
        {
          "name": "",
          "type": "bytes32"
        }
      ],
      "payable": false,
      "stateMutability": "nonpayable",
      "type": "function"
    },
    {
      "anonymous": false,
      "inputs": [
        {
          "indexed": false,
          "name": "id",
          "type": "bytes32"
        },
        {
          "indexed": false,
          "name": "account",
          "type": "address"
        },
        {
          "indexed": false,
          "name": "active",
          "type": "bool"
        }
      ],
      "name": "OrganizationRegistered",
      "type": "event"
    },
    {
      "anonymous": false,
      "inputs": [
        {
          "indexed": false,
          "name": "asRole",
          "type": "address"
        },
        {
          "indexed": false,
          "name": "id",
          "type": "bytes32"
        },
        {
          "indexed": false,
          "name": "childId",
          "type": "bytes32"
        },
        {
          "indexed": false,
          "name": "account",
          "type": "address"
        },
        {
          "indexed": false,
          "name": "active",
          "type": "bool"
        }
      ],
      "name": "Registered",
      "type": "event"
    },
    {
      "constant": false,
      "inputs": [
        {
          "name": "caller",
          "type": "address"
        },
        {
          "name": "parent",
          "type": "address"
        },
        {
          "name": "parentId",
          "type": "bytes32"
        },
        {
          "name": "childId",
          "type": "bytes32"
        },
        {
          "name": "account",
          "type": "address"
        },
        {
          "name": "rlpData",
          "type": "bytes"
        }
      ],
      "name": "register",
      "outputs": [
        {
          "name": "",
          "type": "bytes32"
        }
      ],
      "payable": false,
      "stateMutability": "nonpayable",
      "type": "function"
    },
    {
      "constant": false,
      "inputs": [
        {
          "name": "caller",
          "type": "address"
        },
        {
          "name": "parent",
          "type": "address"
        },
        {
          "name": "id",
          "type": "bytes32"
        },
        {
          "name": "account",
          "type": "address"
        },
        {
          "name": "rlpData",
          "type": "bytes"
        }
      ],
      "name": "unregister",
      "outputs": [],
      "payable": false,
      "stateMutability": "nonpayable",
      "type": "function"
    }
  ],
  "bytecode": "0x60806040526114b5806100136000396000f30060806040526004361061006c5763ffffffff7c010000000000000000000000000000000000000000000000000000000060003504166307bcb6aa81146100715780632bef1a40146100d35780636ea5e3e814610162578063b1dc159b146101ae578063fcd009ee146100d3575b600080fd5b34801561007d57600080fd5b506100c173ffffffffffffffffffffffffffffffffffffffff600480358216916024803582169260443592606435926084359091169160a43591820191013561043c565b60408051918252519081900360200190f35b3480156100df57600080fd5b50604080516020600460c43581810135601f81018490048402850184019095528484526100c194823573ffffffffffffffffffffffffffffffffffffffff9081169560248035831696604435841696606435966084359660a435909616953695929460e49492019181908401838280828437509497506107739650505050505050565b34801561016e57600080fd5b506101ac73ffffffffffffffffffffffffffffffffffffffff6004803582169160248035821692604435926064351691608435908101910135610790565b005b3480156101ba57600080fd5b506101c6600435610851565b6040518080602001806020018060200180602001806020018060200187810387528d818151815260200191508051906020019080838360005b838110156102175781810151838201526020016101ff565b50505050905090810190601f1680156102445780820380516001836020036101000a031916815260200191505b5087810386528c5181528c516020918201918e019080838360005b8381101561027757818101518382015260200161025f565b50505050905090810190601f1680156102a45780820380516001836020036101000a031916815260200191505b5087810385528b5181528b516020918201918d019080838360005b838110156102d75781810151838201526020016102bf565b50505050905090810190601f1680156103045780820380516001836020036101000a031916815260200191505b5087810384528a5181528a516020918201918c019080838360005b8381101561033757818101518382015260200161031f565b50505050905090810190601f1680156103645780820380516001836020036101000a031916815260200191505b5087810383528951815289516020918201918b019080838360005b8381101561039757818101518382015260200161037f565b50505050905090810190601f1680156103c45780820380516001836020036101000a031916815260200191505b5087810382528851815288516020918201918a019080838360005b838110156103f75781810151838201526020016103df565b50505050905090810190601f1680156104245780820380516001836020036101000a031916815260200191505b509c5050505050505050505050505060405180910390f35b60008061044761136f565b61044f611386565b6104598789610bc4565b925061049f600187878080601f01602080910402602001604051908101604052809392919081815260200183838082843750949594505063ffffffff610c4c1692505050565b91506104aa82610cbb565b151561051757604080517f08c379a000000000000000000000000000000000000000000000000000000000815260206004820152601660248201527f524c502064617461206973206e6f742061206c69737400000000000000000000604482015290519081900360640190fd5b61052082610ced565b60008481526020818152604080832073ffffffffffffffffffffffffffffffffffffffff8c16845290915290205490915060ff16156105c057604080517f08c379a000000000000000000000000000000000000000000000000000000000815260206004820152601260248201527f416c726561647920726567697374657265640000000000000000000000000000604482015290519081900360640190fd5b60c0604051908101604052806105dd6105d884610d88565b610dcd565b81526020016105ee6105d884610d88565b81526020016105ff6105d884610d88565b81526020016106106105d884610d88565b81526020016106216105d884610d88565b81526020016106326105d884610d88565b905260008481526020818152604090912082518051919261065b926001850192909101906113a7565b50602082810151805161067492600285019201906113a7565b50604082015180516106909160038401916020909101906113a7565b50606082015180516106ac9160048401916020909101906113a7565b50608082015180516106c89160058401916020909101906113a7565b5060a082015180516106e49160068401916020909101906113a7565b50505060008381526020818152604080832073ffffffffffffffffffffffffffffffffffffffff8b1680855290835292819020805460ff191660019081179091558151878152928301939093528181019290925290517f09b7524d78475bf3a66456a38e3fdc3e07dc85f92472b858e87c86d9754a2fb79181900360600190a150909998505050505050505050565b600061078488888888888888610e9b565b98975050505050505050565b6000848152602081905260408120906107ac6001830182611425565b6107ba600283016000611425565b6107c8600383016000611425565b6107d6600483016000611425565b6107e4600583016000611425565b6107f2600683016000611425565b50506040805185815273ffffffffffffffffffffffffffffffffffffffff8516602082015260008183015290517f09b7524d78475bf3a66456a38e3fdc3e07dc85f92472b858e87c86d9754a2fb79181900360600190a1505050505050565b60006020818152918152604090819020600180820180548451600293821615610100026000190190911692909204601f810186900486028301860190945283825291939092908301828280156108e85780601f106108bd576101008083540402835291602001916108e8565b820191906000526020600020905b8154815290600101906020018083116108cb57829003601f168201915b50505060028085018054604080516020601f600019610100600187161502019094169590950492830185900485028101850190915281815295969594509092509083018282801561097a5780601f1061094f5761010080835404028352916020019161097a565b820191906000526020600020905b81548152906001019060200180831161095d57829003601f168201915b5050505060038301805460408051602060026001851615610100026000190190941693909304601f8101849004840282018401909252818152949594935090830182828015610a0a5780601f106109df57610100808354040283529160200191610a0a565b820191906000526020600020905b8154815290600101906020018083116109ed57829003601f168201915b5050505060048301805460408051602060026001851615610100026000190190941693909304601f8101849004840282018401909252818152949594935090830182828015610a9a5780601f10610a6f57610100808354040283529160200191610a9a565b820191906000526020600020905b815481529060010190602001808311610a7d57829003601f168201915b5050505060058301805460408051602060026001851615610100026000190190941693909304601f8101849004840282018401909252818152949594935090830182828015610b2a5780601f10610aff57610100808354040283529160200191610b2a565b820191906000526020600020905b815481529060010190602001808311610b0d57829003601f168201915b5050505060068301805460408051602060026001851615610100026000190190941693909304601f8101849004840282018401909252818152949594935090830182828015610bba5780601f10610b8f57610100808354040283529160200191610bba565b820191906000526020600020905b815481529060010190602001808311610b9d57829003601f168201915b5050505050905086565b6000811515610c43576040516c0100000000000000000000000073ffffffffffffffffffffffffffffffffffffffff85168102825232818102601484015233918202602884015285929091906000903690434090603c810184848082843790910192835250506040519081900360200190209550610c46945050505050565b50805b92915050565b610c5461136f565b610c5c61136f565b6000610c67856110db565b91508315610cb35750835180610c7c83611123565b1115610c8757600080fd5b80610c9583600001516111a3565b14610c9f57600080fd5b610ca882611230565b1515610cb357600080fd5b509392505050565b600080826020015160001415610cd45760009150610ce7565b8260000151905060c0815160001a101591505b50919050565b610cf5611386565b6000610d0083610cbb565b1515610d6d57604080517f08c379a000000000000000000000000000000000000000000000000000000000815260206004820152600860248201527f4e6f74204c697374000000000000000000000000000000000000000000000000604482015290519081900360640190fd5b610d7683611123565b83519383529092016020820152919050565b610d9061136f565b600080610d9c8461126a565b1561006c5783602001519150610db1826111a3565b82845260208085018290528382019086015290505b5050919050565b60606000806060610ddd85611289565b1515610e4a57604080517f08c379a000000000000000000000000000000000000000000000000000000000815260206004820152601060248201527f746f4173636969204e6f74206461746100000000000000000000000000000000604482015290519081900360640190fd5b610e53856112b2565b92509250816040519080825280601f01601f191660200182016040528015610e85578160200160208202803883390190505b509050610e9383828461132f565b949350505050565b6000806000610eaa8588610bc4565b91508773ffffffffffffffffffffffffffffffffffffffff166307bcb6aa8b30858a8a8a6040518763ffffffff167c0100000000000000000000000000000000000000000000000000000000028152600401808773ffffffffffffffffffffffffffffffffffffffff1673ffffffffffffffffffffffffffffffffffffffff1681526020018673ffffffffffffffffffffffffffffffffffffffff1673ffffffffffffffffffffffffffffffffffffffff168152602001856000191660001916815260200184600019166000191681526020018373ffffffffffffffffffffffffffffffffffffffff1673ffffffffffffffffffffffffffffffffffffffff16815260200180602001828103825283818151815260200191508051906020019080838360005b83811015610fe8578181015183820152602001610fd0565b50505050905090810190601f1680156110155780820380516001836020036101000a031916815260200191505b50975050505050505050602060405180830381600087803b15801561103957600080fd5b505af115801561104d573d6000803e3d6000fd5b505050506040513d602081101561106357600080fd5b50516040805173ffffffffffffffffffffffffffffffffffffffff808c168252602082018b9052818301849052881660608201526001608082015290519192507f3f2aa18c26794287822dc6066f89faec8e22d215f75b9cd54d90597cc943e945919081900360a00190a19998505050505050505050565b6110e361136f565b815160008115156111095760408051808201909152600080825260208201529250610dc6565b506040805180820190915260209384018152928301525090565b600080600083602001516000141561113e5760009250610dc6565b50508151805160001a90608082101561115a5760009250610dc6565b60b8821080611175575060c08210158015611175575060f882105b156111835760019250610dc6565b60c08210156111985760b51982019250610dc6565b5060f5190192915050565b8051600090811a60808110156111bc5760019150610ce7565b60b88110156111d157607e1981019150610ce7565b60c08110156111fa57600183015160b76020839003016101000a9004810160b519019150610ce7565b60f881101561120f5760be1981019150610ce7565b6001929092015160f76020849003016101000a900490910160f51901919050565b8051805160009181831a9160011a9060818314801561124f5750608082105b1561125d5760009350611262565b600193505b505050919050565b600061127461136f565b50508051602080820151915192015191011190565b6000808260200151600014156112a25760009150610ce7565b5050515160c060009190911a1090565b60008060008060006112c386611289565b15156112ce57600080fd5b8551805160001a9350915060808310156112ee5781945060019350611327565b60b883101561130c5760018660200151039350816001019450611327565b60b78303905080600187602001510303935080820160010194505b505050915091565b60006020601f83010484602085015b82841461135c5760208402828101519082015260019093019261133e565b6000865160200187015250505050505050565b604080518082019091526000808252602082015290565b60606040519081016040528061139a61136f565b8152602001600081525090565b828054600181600116156101000203166002900490600052602060002090601f016020900481019282601f106113e857805160ff1916838001178555611415565b82800160010185558215611415579182015b828111156114155782518255916020019190600101906113fa565b5061142192915061146c565b5090565b50805460018160011615610100020316600290046000825580601f1061144b5750611469565b601f016020900490600052602060002090810190611469919061146c565b50565b61148691905b808211156114215760008155600101611472565b905600a165627a7a72305820d2ea2d83d673f4ea2ccf6a28ed1037ee3114ec1dd7e29c71e2e00ae8cbb4cb7b0029",
  "source": "\n\nimport \"./Role.sol\";\nimport \"./RLPRegistration.sol\";\n\ncontract Organization is RLPRegistration {\n    struct OrganizationData {\n        mapping(address => bool) admins;\n        string name; // entity name\n        string streetAddress;\n        string city; \n        string state;\n        string zip;\n        string contact;\n\n    }\n\n    event OrganizationRegistered(\n        bytes32 id,\n        address account,\n        bool active\n    );\n   // id => rlp struct data\n \n    mapping(bytes32 => OrganizationData) public masterAdmins;\n\n    /**\n     * Parses RLP data and registers the account as a master admin for the organization\n     */\n    function register(\n        address caller,\n        Role parent,\n        bytes32 parentId,\n        bytes32 childId,\n        address account,\n        bytes rlpData\n    ) external  returns (bytes32) {\n        // need unique id for each registration\n        bytes32 id = getId(account, childId);\n\n        RLP.RLPItem memory data = rlpData.toRLPItem(true);\n        require(data.isList(), \"RLP data is not a list\");\n        RLP.Iterator memory iterator = data.iterator();\n\n        require(!masterAdmins[id].admins[account], \"Already registered\");\n\n        masterAdmins[id] = OrganizationData({\n            name: iterator.next().toAscii(),\n            streetAddress: iterator.next().toAscii(),\n            city: iterator.next().toAscii(),\n            state: iterator.next().toAscii(),\n            zip: iterator.next().toAscii(),\n            contact: iterator.next().toAscii()\n         \n        });\n\n        // FIXME: Compilation error on newer versions of solidity\n        // require(keccak256(types[masterAdmins[id].organizationType]) != keccak256(\"\"), \"Invalid organizationType\");\n\n        masterAdmins[id].admins[account] = true;\n       // orgMap[id] = parentId;\n\n        emit OrganizationRegistered({\n            id: id,\n            account: account,\n            active: true\n        });\n\n        return id;\n    }\n\n    function unregister(\n        address caller,\n        Role parent,\n        bytes32 id,\n        address account,\n        bytes rlpData\n    ) external  {\n        delete masterAdmins[id];\n        emit OrganizationRegistered({\n            id: id,\n            account: account,\n            active: false\n        });\n    }\n\n    // function acl(\n    //     address caller,\n    //     Role withContract,\n    //     Role asRole,\n    //     bytes32 parentId,\n    //     bytes32 childId,\n    //     address account,\n    //     bool create\n    // ) internal returns (bool) {\n    //     return masterAdmins[parentId].admins[caller];\n    // }\n}\n",
  "sourcePath": "/home/hari/Desktop/Appraisal/Appraisal/contracts/Organization.sol",
  "compiler": {
    "name": "solc",
    "version": "0.4.24+commit.e67f0147.Emscripten.clang"
  },
  "schemaVersion": "3.0.0-beta.0",
  "updatedAt": "2019-03-06T13:57:14.492Z"
}