{
  "contractName": "Project",
  "abi": [
    {
      "constant": false,
      "inputs": [
        {
          "name": "caller",
          "type": "address"
        },
        {
          "name": "withContract",
          "type": "address"
        },
        {
          "name": "asRole",
          "type": "address"
        },
        {
          "name": "parentId",
          "type": "bytes32"
        },
        {
          "name": "childId",
          "type": "bytes32"
        },
        {
          "name": "account",
          "type": "address"
        },
        {
          "name": "rlpData",
          "type": "bytes"
        }
      ],
      "name": "unregisterMembership",
      "outputs": [
        {
          "name": "",
          "type": "bytes32"
        }
      ],
      "payable": false,
      "stateMutability": "nonpayable",
      "type": "function"
    },
    {
      "constant": true,
      "inputs": [
        {
          "name": "",
          "type": "bytes32"
        }
      ],
      "name": "projects",
      "outputs": [
        {
          "name": "id",
          "type": "string"
        },
        {
          "name": "clientname",
          "type": "string"
        },
        {
          "name": "projectname",
          "type": "string"
        }
      ],
      "payable": false,
      "stateMutability": "view",
      "type": "function"
    },
    {
      "constant": false,
      "inputs": [
        {
          "name": "caller",
          "type": "address"
        },
        {
          "name": "withContract",
          "type": "address"
        },
        {
          "name": "asRole",
          "type": "address"
        },
        {
          "name": "parentId",
          "type": "bytes32"
        },
        {
          "name": "childId",
          "type": "bytes32"
        },
        {
          "name": "account",
          "type": "address"
        },
        {
          "name": "rlpData",
          "type": "bytes"
        }
      ],
      "name": "registerMembership",
      "outputs": [
        {
          "name": "",
          "type": "bytes32"
        }
      ],
      "payable": false,
      "stateMutability": "nonpayable",
      "type": "function"
    },
    {
      "anonymous": false,
      "inputs": [
        {
          "indexed": false,
          "name": "id",
          "type": "bytes32"
        },
        {
          "indexed": false,
          "name": "account",
          "type": "address"
        },
        {
          "indexed": false,
          "name": "active",
          "type": "bool"
        }
      ],
      "name": "ProjectRegistered",
      "type": "event"
    },
    {
      "anonymous": false,
      "inputs": [
        {
          "indexed": false,
          "name": "id",
          "type": "bytes32"
        },
        {
          "indexed": false,
          "name": "account",
          "type": "address"
        },
        {
          "indexed": false,
          "name": "active",
          "type": "bool"
        }
      ],
      "name": "ProjectUnregistered",
      "type": "event"
    },
    {
      "anonymous": false,
      "inputs": [
        {
          "indexed": false,
          "name": "asRole",
          "type": "address"
        },
        {
          "indexed": false,
          "name": "id",
          "type": "bytes32"
        },
        {
          "indexed": false,
          "name": "childId",
          "type": "bytes32"
        },
        {
          "indexed": false,
          "name": "account",
          "type": "address"
        },
        {
          "indexed": false,
          "name": "active",
          "type": "bool"
        }
      ],
      "name": "Registered",
      "type": "event"
    },
    {
      "constant": false,
      "inputs": [
        {
          "name": "caller",
          "type": "address"
        },
        {
          "name": "parent",
          "type": "address"
        },
        {
          "name": "parentId",
          "type": "bytes32"
        },
        {
          "name": "childId",
          "type": "bytes32"
        },
        {
          "name": "account",
          "type": "address"
        },
        {
          "name": "rlpData",
          "type": "bytes"
        }
      ],
      "name": "register",
      "outputs": [
        {
          "name": "",
          "type": "bytes32"
        }
      ],
      "payable": false,
      "stateMutability": "nonpayable",
      "type": "function"
    },
    {
      "constant": false,
      "inputs": [
        {
          "name": "caller",
          "type": "address"
        },
        {
          "name": "parent",
          "type": "address"
        },
        {
          "name": "id",
          "type": "bytes32"
        },
        {
          "name": "account",
          "type": "address"
        },
        {
          "name": "rlpData",
          "type": "bytes"
        }
      ],
      "name": "unregister",
      "outputs": [],
      "payable": false,
      "stateMutability": "nonpayable",
      "type": "function"
    }
  ],
  "bytecode": "0x6080604052611062806100136000396000f30060806040526004361061006c5763ffffffff7c010000000000000000000000000000000000000000000000000000000060003504166307bcb6aa81146100715780632bef1a40146100d35780636ea5e3e814610162578063b96ea12d146101ae578063fcd009ee146100d3575b600080fd5b34801561007d57600080fd5b506100c173ffffffffffffffffffffffffffffffffffffffff600480358216916024803582169260443592606435926084359091169160a43591820191013561030a565b60408051918252519081900360200190f35b3480156100df57600080fd5b50604080516020600460c43581810135601f81018490048402850184019095528484526100c194823573ffffffffffffffffffffffffffffffffffffffff9081169560248035831696604435841696606435966084359660a435909616953695929460e49492019181908401838280828437509497506104f29650505050505050565b34801561016e57600080fd5b506101ac73ffffffffffffffffffffffffffffffffffffffff600480358216916024803582169260443592606435169160843590810191013561050f565b005b3480156101ba57600080fd5b506101c66004356105a3565b60405180806020018060200180602001848103845287818151815260200191508051906020019080838360005b8381101561020b5781810151838201526020016101f3565b50505050905090810190601f1680156102385780820380516001836020036101000a031916815260200191505b50848103835286518152865160209182019188019080838360005b8381101561026b578181015183820152602001610253565b50505050905090810190601f1680156102985780820380516001836020036101000a031916815260200191505b50848103825285518152855160209182019187019080838360005b838110156102cb5781810151838201526020016102b3565b50505050905090810190601f1680156102f85780820380516001836020036101000a031916815260200191505b50965050505050505060405180910390f35b600080610315610f1c565b61031d610f33565b6103278789610771565b925061036d600187878080601f01602080910402602001604051908101604052809392919081815260200183838082843750949594505063ffffffff6107f91692505050565b915061037882610868565b15156103e557604080517f08c379a000000000000000000000000000000000000000000000000000000000815260206004820152601660248201527f524c502064617461206973206e6f742061206c69737400000000000000000000604482015290519081900360640190fd5b6103ee8261089a565b905060606040519081016040528061040d61040884610935565b61097a565b815260200161041e61040884610935565b815260200161042f61040884610935565b905260008481526020818152604090912082518051919261045592849290910190610f54565b50602082810151805161046e9260018501920190610f54565b506040820151805161048a916002840191602090910190610f54565b50506040805185815273ffffffffffffffffffffffffffffffffffffffff8a16602082015260018183015290517f768dd9d5671364b1133b5a99eda32433dd3fd7903111ce21454e84ed2ad7a4e692509081900360600190a150909998505050505050505050565b600061050388888888888888610a48565b98975050505050505050565b6000848152602081905260408120906105288282610fd2565b610536600183016000610fd2565b610544600283016000610fd2565b50506040805185815273ffffffffffffffffffffffffffffffffffffffff8516602082015260008183015290517f123a991e54571a2c9c4b25d7080d40317de6a0087cb7165b49928e84e0349bfe9181900360600190a1505050505050565b6000602081815291815260409081902080548251601f6002600019610100600186161502019093169290920491820185900485028101850190935280835290928391908301828280156106375780601f1061060c57610100808354040283529160200191610637565b820191906000526020600020905b81548152906001019060200180831161061a57829003601f168201915b505050505090806001018054600181600116156101000203166002900480601f0160208091040260200160405190810160405280929190818152602001828054600181600116156101000203166002900480156106d55780601f106106aa576101008083540402835291602001916106d5565b820191906000526020600020905b8154815290600101906020018083116106b857829003601f168201915b50505060028085018054604080516020601f60001961010060018716150201909416959095049283018590048502810185019091528181529596959450909250908301828280156107675780601f1061073c57610100808354040283529160200191610767565b820191906000526020600020905b81548152906001019060200180831161074a57829003601f168201915b5050505050905083565b60008115156107f0576040516c0100000000000000000000000073ffffffffffffffffffffffffffffffffffffffff85168102825232818102601484015233918202602884015285929091906000903690434090603c8101848480828437909101928352505060405190819003602001902095506107f3945050505050565b50805b92915050565b610801610f1c565b610809610f1c565b600061081485610c88565b91508315610860575083518061082983610cd0565b111561083457600080fd5b806108428360000151610d50565b1461084c57600080fd5b61085582610ddd565b151561086057600080fd5b509392505050565b6000808260200151600014156108815760009150610894565b8260000151905060c0815160001a101591505b50919050565b6108a2610f33565b60006108ad83610868565b151561091a57604080517f08c379a000000000000000000000000000000000000000000000000000000000815260206004820152600860248201527f4e6f74204c697374000000000000000000000000000000000000000000000000604482015290519081900360640190fd5b61092383610cd0565b83519383529092016020820152919050565b61093d610f1c565b60008061094984610e17565b1561006c578360200151915061095e82610d50565b82845260208085018290528382019086015290505b5050919050565b6060600080606061098a85610e36565b15156109f757604080517f08c379a000000000000000000000000000000000000000000000000000000000815260206004820152601060248201527f746f4173636969204e6f74206461746100000000000000000000000000000000604482015290519081900360640190fd5b610a0085610e5f565b92509250816040519080825280601f01601f191660200182016040528015610a32578160200160208202803883390190505b509050610a40838284610edc565b949350505050565b6000806000610a578588610771565b91508773ffffffffffffffffffffffffffffffffffffffff166307bcb6aa8b30858a8a8a6040518763ffffffff167c0100000000000000000000000000000000000000000000000000000000028152600401808773ffffffffffffffffffffffffffffffffffffffff1673ffffffffffffffffffffffffffffffffffffffff1681526020018673ffffffffffffffffffffffffffffffffffffffff1673ffffffffffffffffffffffffffffffffffffffff168152602001856000191660001916815260200184600019166000191681526020018373ffffffffffffffffffffffffffffffffffffffff1673ffffffffffffffffffffffffffffffffffffffff16815260200180602001828103825283818151815260200191508051906020019080838360005b83811015610b95578181015183820152602001610b7d565b50505050905090810190601f168015610bc25780820380516001836020036101000a031916815260200191505b50975050505050505050602060405180830381600087803b158015610be657600080fd5b505af1158015610bfa573d6000803e3d6000fd5b505050506040513d6020811015610c1057600080fd5b50516040805173ffffffffffffffffffffffffffffffffffffffff808c168252602082018b9052818301849052881660608201526001608082015290519192507f3f2aa18c26794287822dc6066f89faec8e22d215f75b9cd54d90597cc943e945919081900360a00190a19998505050505050505050565b610c90610f1c565b81516000811515610cb65760408051808201909152600080825260208201529250610973565b506040805180820190915260209384018152928301525090565b6000806000836020015160001415610ceb5760009250610973565b50508151805160001a906080821015610d075760009250610973565b60b8821080610d22575060c08210158015610d22575060f882105b15610d305760019250610973565b60c0821015610d455760b51982019250610973565b5060f5190192915050565b8051600090811a6080811015610d695760019150610894565b60b8811015610d7e57607e1981019150610894565b60c0811015610da757600183015160b76020839003016101000a9004810160b519019150610894565b60f8811015610dbc5760be1981019150610894565b6001929092015160f76020849003016101000a900490910160f51901919050565b8051805160009181831a9160011a90608183148015610dfc5750608082105b15610e0a5760009350610e0f565b600193505b505050919050565b6000610e21610f1c565b50508051602080820151915192015191011190565b600080826020015160001415610e4f5760009150610894565b5050515160c060009190911a1090565b6000806000806000610e7086610e36565b1515610e7b57600080fd5b8551805160001a935091506080831015610e9b5781945060019350610ed4565b60b8831015610eb95760018660200151039350816001019450610ed4565b60b78303905080600187602001510303935080820160010194505b505050915091565b60006020601f83010484602085015b828414610f0957602084028281015190820152600190930192610eeb565b6000865160200187015250505050505050565b604080518082019091526000808252602082015290565b606060405190810160405280610f47610f1c565b8152602001600081525090565b828054600181600116156101000203166002900490600052602060002090601f016020900481019282601f10610f9557805160ff1916838001178555610fc2565b82800160010185558215610fc2579182015b82811115610fc2578251825591602001919060010190610fa7565b50610fce929150611019565b5090565b50805460018160011615610100020316600290046000825580601f10610ff85750611016565b601f0160209004906000526020600020908101906110169190611019565b50565b61103391905b80821115610fce576000815560010161101f565b905600a165627a7a723058203d6521f58715b4970b539b8bd7b291c578f37f68f0d93870dca9a3524f6927860029",
  "source": "\n\nimport \"./Role.sol\";\nimport \"./RLPRegistration.sol\";\n\ncontract Project is RLPRegistration {\n    struct ProjectData {\n       \n        string id;\n        string clientname; // entity name\n        string projectname;\n      \n    }\n\n    event ProjectRegistered(\n        bytes32 id,\n        address account,\n        bool active\n    );\n    \n        event ProjectUnregistered(\n        bytes32 id,\n        address account,\n        bool active\n    );\n    \n   // id => rlp struct data\n \n    mapping(bytes32 => ProjectData) public projects;\n\n    /**\n     * Parses RLP data and registers the account as a master admin for the organization\n     */\n    function register(\n        address caller,\n        Role parent,\n        bytes32 parentId,\n        bytes32 childId,\n        address account,\n        bytes rlpData\n    ) external  returns (bytes32) {\n        // need unique id for each registration\n        bytes32 id = getId(account, childId);\n\n        RLP.RLPItem memory data = rlpData.toRLPItem(true);\n        require(data.isList(), \"RLP data is not a list\");\n        RLP.Iterator memory iterator = data.iterator();\n\n    \n    \n        projects[id] = ProjectData({\n            id: iterator.next().toAscii(),\n            clientname: iterator.next().toAscii(),\n            projectname: iterator.next().toAscii()\n         \n        });\n\n        // FIXME: Compilation error on newer versions of solidity\n        // require(keccak256(types[masterAdmins[id].organizationType]) != keccak256(\"\"), \"Invalid organizationType\");\n\n      //  employees[id].admins[account] = true;\n       // orgMap[id] = parentId;\n\n        emit ProjectRegistered({\n            id: id,\n            account: account,\n            active: true\n        });\n\n        return id;\n    }\n\n    function unregister(\n        address caller,\n        Role parent,\n        bytes32 id,\n        address account,\n        bytes rlpData\n    ) external  {\n        delete projects[id];\n        emit ProjectUnregistered({\n            id:id,\n            account: account,\n            active: false\n        });\n    }\n\n    // function acl(\n    //     address caller,\n    //     Role withContract,\n    //     Role asRole,\n    //     bytes32 parentId,\n    //     bytes32 childId,\n    //     address account,\n    //     bool create\n    // ) internal returns (bool) {\n    //     return masterAdmins[parentId].admins[caller];\n    // }\n}\n",
  "sourcePath": "/home/hari/Desktop/Appraisal/Appraisal/contracts/Project.sol",
  "compiler": {
    "name": "solc",
    "version": "0.4.24+commit.e67f0147.Emscripten.clang"
  },
  "schemaVersion": "3.0.0-beta.0",
  "updatedAt": "2019-03-06T13:57:14.501Z"
}