{
  "contractName": "RLPRegistration",
  "abi": [
    {
      "constant": false,
      "inputs": [
        {
          "name": "caller",
          "type": "address"
        },
        {
          "name": "withContract",
          "type": "address"
        },
        {
          "name": "asRole",
          "type": "address"
        },
        {
          "name": "parentId",
          "type": "bytes32"
        },
        {
          "name": "childId",
          "type": "bytes32"
        },
        {
          "name": "account",
          "type": "address"
        },
        {
          "name": "rlpData",
          "type": "bytes"
        }
      ],
      "name": "unregisterMembership",
      "outputs": [
        {
          "name": "",
          "type": "bytes32"
        }
      ],
      "payable": false,
      "stateMutability": "nonpayable",
      "type": "function"
    },
    {
      "constant": false,
      "inputs": [
        {
          "name": "caller",
          "type": "address"
        },
        {
          "name": "withContract",
          "type": "address"
        },
        {
          "name": "asRole",
          "type": "address"
        },
        {
          "name": "parentId",
          "type": "bytes32"
        },
        {
          "name": "childId",
          "type": "bytes32"
        },
        {
          "name": "account",
          "type": "address"
        },
        {
          "name": "rlpData",
          "type": "bytes"
        }
      ],
      "name": "registerMembership",
      "outputs": [
        {
          "name": "",
          "type": "bytes32"
        }
      ],
      "payable": false,
      "stateMutability": "nonpayable",
      "type": "function"
    },
    {
      "anonymous": false,
      "inputs": [
        {
          "indexed": false,
          "name": "asRole",
          "type": "address"
        },
        {
          "indexed": false,
          "name": "id",
          "type": "bytes32"
        },
        {
          "indexed": false,
          "name": "childId",
          "type": "bytes32"
        },
        {
          "indexed": false,
          "name": "account",
          "type": "address"
        },
        {
          "indexed": false,
          "name": "active",
          "type": "bool"
        }
      ],
      "name": "Registered",
      "type": "event"
    }
  ],
  "bytecode": "0x6080604052610402806100136000396000f30060806040526004361061004b5763ffffffff7c01000000000000000000000000000000000000000000000000000000006000350416632bef1a408114610050578063fcd009ee14610050575b600080fd5b34801561005c57600080fd5b50604080516020600460c43581810135601f81018490048402850184019095528484526100df94823573ffffffffffffffffffffffffffffffffffffffff9081169560248035831696604435841696606435966084359660a435909616953695929460e49492019181908401838280828437509497506100f19650505050505050565b60408051918252519081900360200190f35b60006101028888888888888861010e565b98975050505050505050565b600080600061011d858861034e565b91508773ffffffffffffffffffffffffffffffffffffffff166307bcb6aa8b30858a8a8a6040518763ffffffff167c0100000000000000000000000000000000000000000000000000000000028152600401808773ffffffffffffffffffffffffffffffffffffffff1673ffffffffffffffffffffffffffffffffffffffff1681526020018673ffffffffffffffffffffffffffffffffffffffff1673ffffffffffffffffffffffffffffffffffffffff168152602001856000191660001916815260200184600019166000191681526020018373ffffffffffffffffffffffffffffffffffffffff1673ffffffffffffffffffffffffffffffffffffffff16815260200180602001828103825283818151815260200191508051906020019080838360005b8381101561025b578181015183820152602001610243565b50505050905090810190601f1680156102885780820380516001836020036101000a031916815260200191505b50975050505050505050602060405180830381600087803b1580156102ac57600080fd5b505af11580156102c0573d6000803e3d6000fd5b505050506040513d60208110156102d657600080fd5b50516040805173ffffffffffffffffffffffffffffffffffffffff808c168252602082018b9052818301849052881660608201526001608082015290519192507f3f2aa18c26794287822dc6066f89faec8e22d215f75b9cd54d90597cc943e945919081900360a00190a19998505050505050505050565b60008115156103cd576040516c0100000000000000000000000073ffffffffffffffffffffffffffffffffffffffff85168102825232818102601484015233918202602884015285929091906000903690434090603c8101848480828437909101928352505060405190819003602001902095506103d0945050505050565b50805b929150505600a165627a7a72305820124525cc4a58f99c6b875fcccb1145b7b0580adf30ab6339e8b66e8c044550780029",
  "source": "\nimport \"./RLP.sol\";\nimport \"./Registration.sol\";\n\ncontract RLPRegistration is Registration {\n    using RLP for RLP.RLPItem;\n    using RLP for RLP.Iterator;\n    using RLP for bytes;\n}",
  "sourcePath": "/home/hari/Desktop/Appraisal/Appraisal/contracts/RLPRegistration.sol",
  "compiler": {
    "name": "solc",
    "version": "0.4.24+commit.e67f0147.Emscripten.clang"
  },
  "schemaVersion": "3.0.0-beta.0",
  "updatedAt": "2019-03-06T13:57:14.534Z"
}